:100000000C9462000C948A000C948A000C948A0070
:100010000C948A000C948A000C948A000C948A0038
:100020000C948A000C948A000C948A000C948A0028
:100030000C948A000C948A000C948A000C948A0018
:100040000C94A5070C948A000C94FC080C948A006C
:100050000C948A000C948A000C948A000C948A00F8
:100060000C946F020C948A00084AD73B3BCE016E79
:1000700084BCBFFDC12F3D6C74319ABD56833DDAFF
:100080003D00C77F11BED9E4BB4C3E916BAAAABE0E
:10009000000000803F072C7AA5BA6CC590DA3B932C
:1000A00065FC8BBC53F810FD3C5692834DBD879D7B
:1000B0003AB63DCBC9BF5BBE73DA0FC93F00FB0048
:1000C0001604FD0511241FBECFEFD4E0DEBFCDBF67
:1000D00011E0A0E0B1E0E0EBFBE102C005900D9281
:1000E000A031B107D9F711E0A0E1B1E001C01D9244
:1000F000A13EB107E1F710E0C4ECD0E004C02297C4
:10010000FE010E94D20DCE3BD107C9F70E94F60531
:100110000C94D60D0C9400000895089581E080930E
:10012000190160931401109217011092180108959B
:1001300081E08093190160931401109217011092CD
:10014000180108958091130190911201891B08955F
:100150009091120180911301981710F080E008959A
:10016000E0911001F0911101E90FF11D80819F5F75
:100170009093120108959C0180911C0190911D01A2
:10018000892B11F190911201809113019817E0F0E1
:1001900090E00BC0E0911001F0911101EA0FFB1FFC
:1001A000A20FB31F8C9180839F5FA92FB0E0A61789
:1001B000B70784F31092120160931301E0911C01C0
:1001C000F0911D01CB0109950895E0911A01F0917C
:1001D0001B01309729F01092170110921801099510
:1001E000089570931D0160931C01089570931B0185
:1001F00060931A0108950895DF93CF930F92CDB7BE
:10020000DEB76983809119018823A9F080911801D4
:100210008032B0F480911701E0911501F091160140
:10022000E80FF11D6083809117018F5F80931701A4
:100230008093180105C061E0CE0101960E94300252
:100240000F90CF91DF9108950E94FC000895EF92E6
:10025000FF920F931F93CF93DF937C01262F042FE0
:1002600080911901882361F0372FE90110E005C062
:100270006991C7010E94FC001F5F1017C8F305C0F9
:10028000642F822F972F0E943002DF91CF911F9110
:100290000F91FF90EF900895FB0101900020E9F786
:1002A0003197E61BF70B4E2F0E94270108956091AE
:1002B00015017091160121E04091180180911401FF
:1002C0000E94EB011092170110921801109219016F
:1002D0000895862F413208F040E26091100170913C
:1002E00011010E94B501109212018093130108952B
:1002F0000E946901089561E070E080E290E00E9450
:1003000039098093100190931101109212011092FB
:10031000130161E070E080E290E00E94390980936F
:1003200015019093160110921701109218010E9466
:10033000E50308950F931F938C01862F0E94B1014E
:1003400085EE90E00E9452028BEB90E00E944D02FD
:10035000C8010E947B011F910F9108950E949A018C
:100360000895880F8093BA000895982F413210F0B5
:1003700040E02FC080911F018823E1F781E0809346
:100380001F018FEF809330011092270140932801C5
:10039000990F91609093200185EE8093BC0080912D
:1003A0001F018130E1F380912701841710F44091FF
:1003B0002701A0912501B091260120E030E007C07F
:1003C000FB01E20FF31F8D9180832F5F3F4F2417B6
:1003D000B8F3842F08951F93582F122F413210F035
:1003E00081E03CC080911F018823E1F782E0809387
:1003F0001F018FEF80933001109227014093280155
:10040000A0912501B0912601FB0102C081918D933D
:100410008E2F861B8417D0F3852F90E0880F991FAD
:100420008093200185EE8093BC00112321F0809100
:100430001F018230E1F3809130018F3F11F480E0A1
:100440000DC080913001803211F482E007C08091AC
:100450003001803311F084E001C083E01F910895E2
:10046000482F613210F081E0089580911F0184309F
:1004700011F082E0089560932C01A0912901B091C0
:100480002A01842F9C01F90102C081918D938E2F46
:10049000841B8617D0F380E0089590932401809305
:1004A00023010895909322018093210108958823C8
:1004B00011F085EC01C085E88093BC00089585EDBE
:1004C0008093BC008091BC0084FDFCCF10921F0182
:1004D000089585EC8093BC0010921F0108951F922F
:1004E0000F920FB60F9211246F937F938F939F9368
:1004F000EF93FF938091B90090E0887F90708036F1
:10050000910509F4E2C081369105CCF58832910558
:1005100009F47BC089329105B4F48031910509F466
:100520006FC0813191053CF4009709F438C10897F8
:1005300009F040C165C08831910509F466C0809713
:1005400009F038C17FC08034910509F4A3C081341B
:10055000910544F48033910509F47FC0C89709F0F0
:1005600029C186C08035910509F486C0883591057A
:1005700009F495C08834910509F01CC19EC08839E2
:10058000910509F404C189399105ECF48837910586
:1005900009F49BC0893791054CF48836910509F41C
:1005A00094C08037910509F005C18FC08838910546
:1005B00009F4EDC08039910509F48DC080389105AA
:1005C00009F0F8C088C0803B910509F4B2C0813BB6
:1005D00091054CF4803A910509F491C0883A91054F
:1005E00009F0E8C0A6C0803C910509F4D4C0883C5D
:1005F000910509F4D0C0883B910509F0DBC0B1C07A
:10060000809120018093BB00C0C090912701809110
:100610002801981778F490912701E0912501F09135
:100620002601E90FF11D80818093BB009F5F9093AD
:100630002701ABC085ED8093BC008091BC0084FD98
:10064000FCCFB6C080E28093300185ED8093BC0082
:100650008091BC0084FDFCCFABC080E3809330016F
:1006600085ED8093BC008091BC0084FDFCCFA0C0D0
:1006700088E3809330018FC0809127019091BB0067
:10068000E0912501F0912601E80FF11D90838F5F25
:1006900080932701909127018091280174C0809157
:1006A00027019091BB00E0912501F0912601E80F10
:1006B000F11D90838F5F8093270185ED8093BC00AF
:1006C0008091BC0084FDFCCF73C083E080931F0148
:1006D00010922F015AC080912F01803208F057C02C
:1006E00080912F019091BB00E0912D01F0912E019E
:1006F000E80FF11D90838F5F80932F0146C080919A
:100700002F01803248F480912F01E0912D01F0916A
:100710002E01E80FF11D108260912F01E09123015D
:10072000F091240170E080912D0190912E010995A6
:1007300032C084E080931F0110922B0110922C0193
:10074000E0912101F0912201099580912C018823EB
:1007500041F481E080932C01E0912901F0912A017C
:10076000108290912B01E0912901F0912A01E90F6B
:10077000F11D80818093BB009F5F90932B0190912E
:100780002B0180912C01981710F485EC01C085E8AD
:100790008093BC000FC085EC8093BC0009C0109210
:1007A000300185ED8093BC008091BC0084FDFCCFBE
:1007B00010921F01FF91EF919F918F917F916F9107
:1007C0000F900FBE0F901F90189510921F01449A22
:1007D000459AE9EBF0E080818E7F808380818D7F78
:1007E000808388E48093B80085E48093BC0061E056
:1007F00070E080E290E00E94390980932501909397
:10080000260161E070E080E290E00E943909809367
:10081000290190932A0161E070E080E290E00E945B
:10082000390980932D0190932E010895E1E3F1E0C1
:100830008EE1DF011D928A95E9F70895FF920F93EB
:100840001F93CF93DF93EC0146E050E062E570E048
:100850008EE191E00E947801F7E1FF2E0EC010E0DA
:100860008EE191E00E94A8000C0F1D1F8F25895E6C
:10087000F801818388818F5F88838EE191E00E94F7
:10088000A2000881882359F7063008F46AC08C8DCD
:10089000888F8D8D898F8A8D90E02C85821B9109A0
:1008A0009F878E878B8D90E02D85821B9109998B78
:1008B000888B188289818A8F8A818B8F1986188606
:1008C00003E010E02BC0AD014F5F5F4FCA01880FFE
:1008D000991FFD013996EE0FFF1FEC0FFD1F9801C8
:1008E000082E02C0220F331F0A94E2F702C035958A
:1008F00027958A95E2F7862F90E028233923AC0FBD
:10090000BD1F13968C9190E0880F991F880F991F37
:10091000280F391F3183208359874887A885B985D7
:100920006E81A330B1057CF260FF03C081E08C8F43
:1009300001C01C8E8E8181FF03C081E08D8F01C0BC
:100940001D8E62E570E08EE191E00E94980060E00B
:1009500070E08EE191E00E9424018EE191E00E941E
:100960005701DF91CF911F910F91FF900895EF9262
:10097000FF920F931F9364E170E080E090E00E948B
:10098000100881E391E00E941E046091470170917C
:100990004801882777FD8095982F0E94CE0B20E094
:1009A00030E046EE53E40E946C0A7B018C016091BA
:1009B000430170914401882777FD8095982F0E940C
:1009C000CE0B20E030E04FEF53E40E946C0AA80108
:1009D00097010E94E00A2BED3FE049E450E40E94B9
:1009E000330B20E030E044E353E40E94A10C0E946A
:1009F0009B0B0FE411E0C8010E946D07A0E0EA2EF6
:100A0000A1E0FA2EB701C8010E94260660914501B7
:100A100070914601882777FD8095982F0E94CE0B14
:100A200020E030E045EF53E40E946C0A20E030E023
:100A300042E553E40E94330B0E945E0A2BED3FE037
:100A400049E450E40E94330B20E030E044E353E4F7
:100A50000E94A10C0E949B0BC8010E946D07B70168
:100A6000C8010E94260660914301709144018827C5
:100A700077FD8095982F0E94CE0B20E030E04FEF5D
:100A800053E40E946C0A0E949B0BC8010E946D07F0
:100A9000B701C8010E942606609145017091460188
:100AA000882777FD8095982F0E94CE0B20E030E0BC
:100AB00045EF53E40E946C0A0E949B0BC8010E9400
:100AC0006D07B701C8010E94260660914701709129
:100AD0004801882777FD8095982F0E94CE0B20E053
:100AE00030E046EE53E40E946C0A0E949B0BC80162
:100AF0000E946D07B701C8010E94260660914B0154
:100B000070E080913D01681B7109C8010E946D076A
:100B1000B701C8010E94260660914C0170E08091E7
:100B20003E01681B7109C8010E946D07B701C80129
:100B30000E94260660914E0170E0C8010E946D0778
:100B4000B701C8010E94260660914D0170E0C801FE
:100B50000E946D07C8010E943E061F910F91FF90F1
:100B6000EF90089540E052EC61E070E08FE491E096
:100B70000E9411068EE191E00E947B0110923101EA
:100B80001092380162E570E08EE191E00E949800D9
:100B900060E470E08EE191E00E94240160E070E08A
:100BA0008EE191E00E9424018EE191E00E945701C4
:100BB00081E391E00E941E04E3E4F1E080E090E034
:100BC00003C011921192019683309105D4F3909352
:100BD0003A01809339018CE780933D0184E880934A
:100BE0003E0181E391E00E941E0408950E9448089E
:100BF0000E94B2050E94B704FDCF87E091E0909378
:100C0000500180934F010895862F0E94BB080895DC
:100C10000E94F30808950E94D40808950E94C30812
:100C20000895CB01BA010E9482080895DC01ED917C
:100C3000FC910190F081E02D09950895DC01ED9182
:100C4000FC910190F081E02D099508950F931F9379
:100C5000CF93DF938C01EB0109C02196D801ED9170
:100C6000FC910190F081E02DC8010995688166230F
:100C7000A1F7DF91CF911F910F9108950F931F93CB
:100C80008C01DC01ED91FC910190F081E02D6DE093
:100C90000995D801ED91FC910190F081E02D6AE079
:100CA000C80109951F910F9108950F931F938C010F
:100CB000DC01ED91FC910190F081E02D0995C801D6
:100CC0000E943E061F910F9108950F931F938C0170
:100CD0000E942606C8010E943E061F910F910895AA
:100CE0000F931F938C01DC01ED91FC910190F08139
:100CF000E02D0995C8010E943E061F910F910895AD
:100D00002F923F924F925F926F927F928F929F921B
:100D1000AF92BF92CF92DF92EF92FF920F931F9309
:100D2000DF93CF93CDB7DEB7A0970FB6F894DEBFB1
:100D30000FBECDBF1C016A017B0141155105610544
:100D4000710549F4DC01ED91FC910190F081E02DF9
:100D500060E3099554C0882499245401422E5524F7
:100D60006624772401E010E00C0F1D1F080D191DEB
:100D7000C701B601A30192010E947F0DF8016083B3
:100D80000894811C911CA11CB11CC701B601A301D0
:100D900092010E947F0DC901DA016C017D01C1142D
:100DA000D104E104F104F1F681E0E82EF12CEC0E1F
:100DB000FD1EE80CF91C3E010894611C711CD50154
:100DC000C4010197A109B1096C01C818D90814C060
:100DD000F601EE0DFF1D60816A3010F4605D01C008
:100DE000695CD101ED91FC910190F081E02DC10190
:100DF00009950894E108F1086E147F0449F7A0965C
:100E00000FB6F894DEBF0FBECDBFCF91DF911F911B
:100E10000F91FF90EF90DF90CF90BF90AF909F9099
:100E20008F907F906F905F904F903F902F9008959C
:100E30002AE00E94800608950F931F938C010E9460
:100E40001807C8010E943E061F910F910895AB013B
:100E500060E070E00E94180708950F931F938C01C3
:100E6000AB0160E070E00E941807C8010E943E06D6
:100E70001F910F910895EF92FF920F931F93CF93BD
:100E8000DF93EC017A018B0177FF0FC0E881F981D4
:100E90000190F081E02D6DE2099510950095F09498
:100EA000E094E11CF11C011D111D2AE0B801A7010D
:100EB000CE010E948006DF91CF911F910F91FF908C
:100EC000EF9008950F931F938C010E943B07C80178
:100ED0000E943E061F910F910895AB01662757FDB2
:100EE0006095762F0E943B0708950F931F938C0106
:100EF000AB01662757FD6095762F0E943B07C8011E
:100F00000E943E061F910F910895DC0121153105C5
:100F100041F4ED91FC910190F081E02D642F099551
:100F200008952A30310519F40E943B0708950E9464
:100F3000800608950F931F938C010E948507C801B6
:100F40000E943E061F910F9108951F920F920FB6B7
:100F50000F9211242F938F939F93AF93BF93809100
:100F6000510190915201A0915301B09154018050D0
:100F7000904CAF4FBF4F8093510190935201A0937B
:100F80005301B093540127C08091510190915201B7
:100F9000A0915301B091540180589E43A040B040AD
:100FA0008093510190935201A0935301B093540147
:100FB0008091550190915601A0915701B09158012F
:100FC0000196A11DB11D8093550190935601A093E8
:100FD0005701B09358018091510190915201A09115
:100FE0005301B091540181589E43A040B04060F637
:100FF000BF91AF919F918F912F910F900FBE0F9046
:101000001F9018958FB7F894209155013091560193
:1010100040915701509158018FBFB901CA010895FD
:10102000EF92FF920F931F937B018C018FB7F8947F
:1010300040915501509156016091570170915801AE
:101040008FBF2FB7F8948091550190915601A091D0
:101050005701B09158012FBF841B950BA60BB70BFE
:101060008E159F05A007B10760F31F910F91FF90A8
:10107000EF900895019759F0FC01EE0FFF1FEE0F5E
:10108000FF1F32978FB7F8943197F1F78FBF08950C
:10109000789484B5826084BD84B5816084BD85B553
:1010A000826085BD85B5816085BDEEE6F0E080811A
:1010B00081608083E1E8F0E08081826080838081CC
:1010C00081608083E0E8F0E0808181608083E1EBF3
:1010D000F0E0808184608083E0EBF0E080818160DB
:1010E0008083EAE7F0E08081846080838081826091
:1010F000808380818160808380818068808310927A
:10110000C1000895EF92FF920F931F937B018C0112
:1011100022E030E040E050E00E94A10D205C3D4B19
:10112000404F5F4FCA01B901A80197010E94A10D6C
:10113000C901DA010197A109B109292F3A2F4B2FD3
:10114000552747FD5A950196A11DB11D2093C50055
:1011500081508093C400E1ECF0E080818061808365
:101160008081886080838081806880831F910F9157
:10117000FF90EF900895982F8091C00085FFFCCFDD
:101180009093C60008958091590190915A0180581A
:101190009F4F20915B0130915C01821B930B60E8B3
:1011A00070E00E946C0D089540915B0150915C01CC
:1011B0008091590190915A018417950719F42FEFE6
:1011C0003FEF0FC0FA01E35AFE4F2081CA0101969A
:1011D00060E870E00E946C0D90935C0180935B016D
:1011E00030E0C901089580915B0190915C0190937A
:1011F0005A018093590108951F920F920FB60F92D2
:1012000011242F933F934F935F936F937F938F930B
:101210009F93AF93BF93EF93FF934091C600E091EC
:101220005901F0915A01CF01019660E870E00E94E7
:101230006C0D9C0180915B0190915C01281739072E
:1012400039F0E35AFE4F408330935A0120935901FD
:10125000FF91EF91BF91AF919F918F917F916F918E
:101260005F914F913F912F910F900FBE0F901F9064
:1012700018950F931F93CF93DF93689F8001699F09
:10128000100D789F100D1124C8010E945509EC0122
:10129000009729F0A80160E070E00E94570ACE0193
:1012A000DF91CF911F910F910895CF93DF93BC01F0
:1012B0008230910510F462E070E0A091DF01B091FE
:1012C000E001ED01E0E0F0E040E050E021C0888185
:1012D00099818617970769F48A819B81309719F065
:1012E0009383828304C09093E0018093DF01FE0129
:1012F00034C06817790738F44115510519F084177F
:10130000950708F4AC01FE018A819B819C01E901EB
:101310002097E9F641155105A9F1CA01861B970BE3
:10132000049708F4BA01E0E0F0E02AC08D919C91A6
:10133000119784179507F9F46417750781F41296CD
:101340008D919C911397309719F09383828304C0F9
:101350009093E0018093DF01FD0132964CC0CA01F9
:10136000861B970BFD01E80FF91F6193719302979C
:101370008D939C9340C0FD01828193819C01D90192
:101380001097A1F68091DD019091DE01892B41F447
:1013900080910B0190910C019093DE018093DD010F
:1013A00040910D0150910E014115510541F44DB789
:1013B0005EB78091090190910A01481B590B209159
:1013C000DD013091DE01CA01821B930B861797075E
:1013D00080F0AB014E5F5F4F8417950750F0420FCE
:1013E000531F5093DE014093DD01F9016193719326
:1013F00002C0E0E0F0E0CF01DF91CF910895CF93FC
:10140000DF93009709F450C0EC0122971B821A82E7
:10141000A091DF01B091E001109709F140E050E0A8
:10142000AC17BD0708F1BB83AA83FE01219131915E
:10143000E20FF31FAE17BF0779F48D919C911197BE
:10144000280F391F2E5F3F4F3983288312968D91C5
:101450009C9113979B838A834115510571F4D09316
:10146000E001C093DF0120C012968D919C911397EB
:10147000AD01009711F0DC01D3CFFA01D383C28311
:1014800021913191E20FF31FCE17DF0769F48881B4
:101490009981280F391F2E5F3F4FFA013183208336
:1014A0008A819B8193838283DF91CF910895DC01B0
:1014B00001C06D9341505040E0F708959F939F778E
:1014C000A8D10F9000203AF49058A2EA2AED3FE00C
:1014D00049E450E413D0F4C15058BB27AA270ED0DA
:1014E000EFC1E0D130F0E5D120F031F49F3F11F4AD
:1014F0001EF4B0C10EF4E095E7FBA6C1E92FF1D1CF
:1015000080F3BA17620773078407950718F071F420
:101510009EF509C20EF4E0950B2EBA2FA02D0B01FB
:10152000B90190010C01CA01A0011124FF27591B28
:1015300099F0593F50F4503E68F11A16F040A22F2E
:10154000232F342F4427585FF3CF4695379527959F
:10155000A795F0405395C9F77EF41F16BA0B620B9E
:10156000730B840BBAF09150A1F0FF0FBB1F661FE5
:10157000771F881FC2F70EC0BA0F621F731F841F28
:1015800048F4879577956795B795F7959E3F08F04E
:10159000B3CF9395880F08F09927EE0F979587950D
:1015A000089580D158F080E891E009F49EEF81D150
:1015B00028F040E851E059F45EEF09C04BC1B3C1D7
:1015C000E92FE0788ED168F3092E052AC1F326179A
:1015D00037074807590738F00E2E07F8E02569F05D
:1015E000E025E0640AC0EF6307F8009407FADB0126
:1015F000B9019D01DC01CA01AD01EF9343D060D177
:101600000AD05F91552331F02BED3FE049E450FDC6
:1016100049EC63CF0895DF93DD27B92FBF7740E80A
:101620005FE31616170648075B0710F4D92F82D11F
:101630009F938F937F936F9335D2E8E6F0E00DD1BF
:101640003FD12F913F914F915F9187D1DD2349F099
:101650009058A2EA2AED3FE049EC5FE3D0785D279D
:101660004DDFDF912DC10CD02BC123D140F01AD119
:1016700030F021F45F3F19F0E7C0511155C1EAC0C5
:1016800030D198F39923C9F35523B1F3951B550B2A
:10169000BB27AA2762177307840738F09F5F5F4F45
:1016A000220F331F441FAA1FA9F333D00E2E3AF086
:1016B000E0E830D091505040E695001CCAF729D0A0
:1016C000FE2F27D0660F771F881FBB1F26173707EF
:1016D0004807AB07B0E809F0BB0B802DBF01FF271F
:1016E00093585F4F2AF09E3F510568F0ADC01CC172
:1016F0005F3FECF3983EDCF3869577956795B79559
:10170000F7959F5FC9F7880F911D9695879597F973
:101710000895E1E0660F771F881FBB1F62177307EC
:101720008407BA0720F0621B730B840BBA0BEE1F01
:1017300088F7E095089504D06894B111F5C0089534
:10174000D8D088F09F5790F0B92F9927B751A0F0C3
:10175000D1F0660F771F881F991F1AF0BA95C9F745
:1017600012C0B13081F0DFD0B1E00895DCC0672F46
:10177000782F8827B85F39F0B93FCCF386957795F5
:101780006795B395D9F73EF49095809570956195DE
:101790007F4F8F4F9F4F0895E89409C097FB3EF409
:1017A00090958095709561957F4F8F4F9F4F9923AE
:1017B000A9F0F92F96E9BB279395F695879577952C
:1017C0006795B795F111F8CFFAF4BB0F11F460FFEC
:1017D0001BC06F5F7F4F8F4F9F4F16C0882311F044
:1017E00096E911C0772321F09EE8872F762F05C058
:1017F000662371F096E8862F70E060E02AF09A95F3
:10180000660F771F881FDAF7880F9695879597F9E7
:101810000895DF93CF931F930F938B01EC01E5E9BC
:10182000F0E01BD04DD09801AE018B01EC0160E0DF
:1018300070E080E89FE350DEEBD09801AE010F919D
:101840001F91CF91DF9189C097F99F6780E870E081
:1018500060E008959FEF80EC0895DF93CF931F938E
:101860000F93FF92EF92DF927B018C01689405C089
:10187000DA2EEF0172D0FE01E894A5912591359101
:1018800045915591AEF3EF0139DEFE019701A801B4
:10189000DA9479F7DF90EF90FF900F911F91CF913D
:1018A000DF91089500240A941616170618060906F3
:1018B000089500240A9412161306140605060895C6
:1018C000092E0394000C11F4882352F0BB0F40F44E
:1018D000BF2B11F460FF04C06F5F7F4F8F4F9F4F8E
:1018E000089557FD9058440F551F59F05F3F71F010
:1018F0004795880F97FB991F61F09F3F79F0879577
:101900000895121613061406551FF2CF4695F1DFFF
:1019100008C0161617061806991FF1CF869571058F
:10192000610508940895E894BB2766277727CB01C3
:1019300097F908959B01AC0160E070E080E89FE3B7
:1019400092CE0BD0BDCFAEDF28F0B3DF18F09523D9
:1019500009F07ACF7FCF1124E7CFC3DFA0F3959FA3
:10196000D1F3950F50E0551F629FF001729FBB2786
:10197000F00DB11D639FAA27F00DB11DAA1F649F32
:101980006627B00DA11D661F829F2227B00DA11DE5
:10199000621F739FB00DA11D621F839FA00D611D6B
:1019A000221F749F3327A00D611D231F849F600D8C
:1019B000211D822F762F6A2F11249F5750408AF0C5
:1019C000E1F088234AF0EE0FFF1FBB1F661F771F51
:1019D000881F91505040A9F79E3F510570F034CFB9
:1019E000A3CF5F3FECF3983EDCF386957795679540
:1019F000B795F795E7959F5FC1F7FE2B880F911D6F
:101A00009695879597F9089511F40EF423CF4DC05C
:101A100070DFD0F39923D9F3CEF39F57550B87FF8F
:101A200054D056959795B0E020F4660F771F881F25
:101A3000BB1F1F930F9300249001A0018001F001B0
:101A4000A0E80E0F1F1F0A1E511D601B710B80099D
:101A5000B50B48F4600F711F801DB51F0E1B1F0BC7
:101A60000A0A510907C02E0F3F1F4A1F0E0F1F1FE2
:101A70000A1E511D660F771F881FBB1FA695F7957D
:101A8000E795F8F60617170708065B07211D311DB5
:101A9000411D0F911F91B901842F9158880F969580
:101AA000879508959B01AC014CCF9F3F49F0915021
:101AB00028F4869577956795B7959F5F80389F4FF7
:101AC000880F9695879597F9089591505040660F25
:101AD000771F881FD2F7089597FB092E07260AD093
:101AE00077FD04D049D006D000201AF47095619596
:101AF0007F4F0895F6F7909581959F4F0895A1E245
:101B00001A2EAA1BBB1BFD010DC0AA1FBB1FEE1F77
:101B1000FF1FA217B307E407F50720F0A21BB30BC2
:101B2000E40BF50B661F771F881F991F1A9469F73E
:101B300060957095809590959B01AC01BD01CF019A
:101B4000089597FB092E05260ED057FD04D0D7DF48
:101B50000AD0001C38F450954095309521953F4FA0
:101B60004F4F5F4F0895F6F790958095709561956A
:101B70007F4F8F4F9F4F0895AA1BBB1B51E107C09A
:101B8000AA1FBB1FA617B70710F0A61BB70B881F0D
:101B9000991F5A95A9F780959095BC01CD0108959C
:101BA000EE0FFF1F0590F491E02D0994F894FFCFFC
:101BB0002C20000000000004062000E101000000CD
:00000001FF
