:100000000C94A2000C94CA000C94CA000C94CA0070
:100010000C94CA000C94CA000C94CA000C94CA0038
:100020000C94CA000C94CA000C94CA000C94CA0028
:100030000C94CA000C94CA000C94CA000C94CA0018
:100040000C9498070C94CA000C94CA000C94CA0033
:100050000C94CA000C94CA000C94CA000C94CA00F8
:100060000C94CA000C94CA003C68313E423C2F6894
:10007000313E00485454502F312E30203230302041
:100080004F4B0D0A436F6E74656E742D5479706515
:100090003A20746578742F68746D6C0D0A0D0A002F
:1000A0003C68313E413C2F68313E00485454502F4B
:1000B000312E3020323030204F4B0D0A436F6E749A
:1000C000656E742D547970653A20746578742F6864
:1000D000746D6C0D0A0D0A3C68313E323030204F91
:1000E0004B3C2F68313E0000000000240027002A0E
:1000F0000000000000250028002B00000000002365
:10010000002600290004040404040404040202027A
:100110000202020303030303030102040810204048
:1001200080010204081020010204081020000000D1
:1001300007000201000003040600000000000000A8
:100140000000F00511241FBECFEFD4E0DEBFCDBF0D
:1001500011E0A0E0B1E0EEE8F1E102C005900D92FF
:10016000AE32B107D9F713E0AEE2B1E001C01D92A3
:10017000A336B107E1F711E0C4E4D1E004C022974F
:10018000FE010E94C108C234D107C9F70E9491073D
:100190000C94C5080C940000FB01DC014150504058
:1001A00030F08D910190801919F40020B9F7881B67
:1001B000990B08950F931F93CF93DF938C01EB015D
:1001C0008AE060E00E9472088AE78EBD0DB407FEE7
:1001D000FDCF08C088818EBD0DB407FEFDCF015054
:1001E0001040219601151105A9F78AE061E00E94EF
:1001F0007208DF91CF911F910F9108950F931F9374
:10020000CF93DF938C01EB018AE060E00E947208DB
:100210008AE38EBD0DB407FEFDCF9801FE0108C034
:100220001EBC0DB407FEFDCF215030408EB581932A
:1002300021153105A9F7C00FD11F18828AE061E0AE
:100240000E947208DF91CF911F910F910895FF9244
:100250000F931F93082F162FF42E8AE060E00E9460
:1002600072081F71102B1EBD0DB407FEFDCFFEBC22
:100270000DB407FEFDCF8AE061E00E9472081F9175
:100280000F91FF9008951F93CF93DF93182FC82FDE
:10029000D0E0C076D07080912E0190E0C817D907C9
:1002A00091F080EA6FE143E00E94270185E0D59557
:1002B000C7958A95E1F780E86FE14C2F0E942701EE
:1002C000107610932E01DF91CF911F9108950F9317
:1002D0001F93182F062F0E94430180E4612F402FA7
:1002E0000E9427011F910F910895682F677085E77D
:1002F0000E94670108950F931F93182F062F8AE01D
:1003000060E00E947208802F8F71812B8EBD0DB42A
:1003100007FEFDCF1EBC0DB407FEFDCF07FF04C0D6
:100320001EBC0DB407FEFDCF8AE061E00E9472089A
:100330008EB51F910F9108951F93182F0E944301AE
:1003400080E0612F0E947B011F910895EF92FF9240
:100350000F931F938C017B0182E06FEF0E94670176
:1003600083E069E10E946701602F615086E00E948E
:10037000670198012150364E87E0632F0E94670184
:100380008AE760E040E00E942701C801B7010E94AF
:10039000DA0080E86FE148E00E9427018CE10E94CA
:1003A0009C0181FF05C080EA6FE148E00E942701BF
:1003B0001F910F91FF90EF900895AF92BF92CF924F
:1003C000DF92EF92FF920F931F93CF93DF936C0115
:1003D0005B0189E30E949C01882319F4C0E0D0E00E
:1003E0005DC080E060912F010E9467016091300143
:1003F00081E00E9467018AE360E00E947B01082F90
:1004000010E01093300100932F018AE360E00E9416
:100410007B01382F20E0202B312B309330012093AB
:100420002F018AE360E00E947B01E82E8AE360E00E
:100430000E947B01F82E8AE360E00E947B01082F76
:1004400010E08AE360E00E947B01382F20E0202B3F
:10045000312B27FD03C0C0E0D0E011C0CE2DD0E08D
:100460009F2D80E0C82BD92BC601019724978C17AC
:100470009D0708F4EC01CE01B5010E94FE008CE05E
:1004800060912F010E946701609130018DE00E9410
:10049000670180E86EE140E40E942701CE01DF9110
:1004A000CF911F910F91FF90EF90DF90CF90BF9071
:1004B000AF9008950F931F93982F162F072F84ED59
:1004C000692F0E94670186ED612F0E94670187ED09
:1004D000602F0E94670104C08FE090E00E940A082C
:1004E0008AEE0E949C0180FDF7CF1F910F91089525
:1004F0000F931F938C018AE061E00E9452088AE00A
:1005000061E00E9472088BE061E00E9452088DE079
:1005100061E00E9452088CE060E00E9452088BE08B
:1005200060E00E9472088DE060E00E94720880E541
:100530008CBD8DB581608DBD8FEF60E04FEF0E9467
:10054000270162E370E080E090E00E94E0071092F3
:10055000300110922F0188E060E00E94670189E07D
:1005600060E00E9467018CE060E00E9467018DE01E
:1005700060E00E9467018AE06EEF0E9467018BE0F5
:1005800069E10E94670184E06FEF0E94670185E0E6
:1005900069E10E94670186E06FEF0E94670187E0D2
:1005A0006FE10E94670188E360EB0E94670188E2C7
:1005B0006FE30E94670189E260E30E94670180E3C4
:1005C00069EF0E94670181E367EF0E94670180EC99
:1005D0006DE00E94670181EC60E00E94670180E8A5
:1005E00062EC42E30E94270186EC62E10E9467010F
:1005F00087EC6CE00E94670184EC62E10E94670175
:100600008AEC6CED0E9467018BEC65E00E9467014B
:1006100084EEF80160810E94670185EEF801618136
:100620000E94670182EEF80162810E94670183EEF9
:10063000F80163810E94670180EEF80164810E94E5
:10064000670181EEF80165810E94670180E160E049
:1006500071E00E945A028FE10E94430180E86BE141
:1006600040EC0E94270180E86FE144E00E942701EE
:100670001F910F910895EF92FF920F931F93CF93C5
:10068000DF937C01413061F4685070409B0140E091
:1006900050E0685F7F4F2F5E3F4F4F4F5F4F12C05C
:1006A000423029F020E030E040E050E00BC06850DC
:1006B00070409B0140E050E0685F7F4F2A5F3F4FF2
:1006C0004F4F5F4FE7018B010FC0F881E0E0898158
:1006D00090E08E2B9F2BA0E0B0E0280F391F4A1F1F
:1006E0005B1F2296025010400230110570F7FB018B
:1006F000EE7FEE0DFF1D60FF0DC0908180E0AA2708
:1007000097FDA095BA2F02C040705070280F391F76
:100710004A1F5B1FCA01AA27BB270097A105B10585
:1007200099F720953095C901DF91CF911F910F91D5
:10073000FF90EF900895CF93DF93EC014093220157
:1007400020E030E0F901E55CFE4FDB01A20FB31FB2
:100750008C9180832F5F3F4F2430310599F720E043
:1007600030E0F901EB5CFE4FDE01A20FB31F8C916C
:1007700080832F5F3F4F2630310599F7DF91CF916E
:100780000895FC0169327105B0F08485883099F4D0
:100790008585863081F4DF019696EBE3F1E09C914C
:1007A0008081981741F41196319681E0EF33F80774
:1007B000B1F781E0089580E00895FC016A32710587
:1007C000D0F084858830B9F485858823A1F48685A6
:1007D000853489F4DF01EBE3F1E05E969C915E974E
:1007E0008081981741F41196319681E0EF33F80734
:1007F000A1F781E0089580E008950F931F938C0185
:10080000FC01108E118E80E4848B158A868BC801C2
:100810000E9664E170E040E00E943B03F801908F87
:10082000818F1F910F910895AC01FC01ABE3B1E002
:10083000828D868F8D91828F319681E0AF33B8079C
:10084000B9F7CA010E94FD030895FC0182A184A3A7
:1008500012A283A185A313A28091220183A3DF01A9
:10086000999694E08C91680F711D14968C91149751
:1008700014966C931497222311F08C9301C01C9250
:1008800091501197992319F0672F7727EBCF2223E7
:1008900049F416A217A28091210180A711A68E5FAC
:1008A0008093210112AA13AA442351F082E086AB5F
:1008B00084E087AB85E080AF80E881AF80E601C04F
:1008C00080E586A708958091310190913201892BAE
:1008D00019F420E030E006C020913301309134015A
:1008E0002E5D3F4FC9010895FC01908980E0218968
:1008F00030E0282B392B86A582958F7090E0880FE9
:10090000991F880F991F90933401809333012451CC
:100910003040281B390B30933201209331011216DD
:10092000130624F0109232011092310108956A5C8E
:100930007F4FDC01A60FB71F6653704003C08D9335
:100940006F5F7F4FFA014F5F5F4F84918823B9F744
:10095000CB010895EF92FF920F931F938C017B01BF
:1009600089E1F80187A7CB018896908B818BC8011C
:100970000E94FD03F80112AA13AA8CE190E0E80E90
:10098000F91EC8014A96B70142E00E943B03F801F4
:1009900092AB83ABC7014A96B8010E94A6011F9192
:1009A0000F91FF90EF900895CF93DF93EC01FC013E
:1009B000A5E3B1E0868180838D918683319681E0C5
:1009C000AB33B807B9F780E18FA76091310170911F
:1009D00032016115710521F4CE0161E070E001C0C2
:1009E000CE0140E021E00E942504188A88E2898B2C
:1009F000CE010E941404CE014A966CE170E042E000
:100A00000E943B039AAB8BAB86E390E0BE010E9451
:100A1000A601DF91CF910895CF93DF93EC01FC0104
:100A2000A5E3B1E0868180838D918683319681E054
:100A3000AB33B807B9F7188A8CE2898BCE010E94D4
:100A4000140482E18FA7CE0161E070E041E020E074
:100A50000E942504CE014A9660E270E042E00E94C6
:100A60003B039AAB8BAB8AE390E0BE010E94A601E8
:100A7000DF91CF9108950F931F93CF93DF93EC01F4
:100A80008B01FC01A5E3B1E0868180838D91868393
:100A9000319681E0AB33B807B9F7CE010E94140458
:100AA0001AA28CA1883F18F08DA18F5F8DA38CA115
:100AB000885F8CA3C801BE010E94A601DF91CF917F
:100AC0001F910F910895CF93DF93AC01EC0125E3C3
:100AD00031E0FC01D901868180838D918683319636
:100AE00081E0AB33B807B9F7FA01148A82E0858B4D
:100AF0008E8988A3F90181919F018E8B2196F1E067
:100B00002B333F07A9F7FA017C96ABE3B1E0808174
:100B100082878D91819381E0AF33B807C1F78AE274
:100B200090E0BA010E94A601DF91CF910895089547
:100B3000CB01BA010E94AA040895CB010E94D404FB
:100B400008950E9463040895CB010E9474040895DF
:100B5000CB010E940C050895CB01BA010E943B0510
:100B60000895CB01BA010E94DD030895CB010E94D4
:100B700063050895CB01BA010E94C1030895CB011A
:100B8000BA01422F0E949B030895CB01BA010E9433
:100B9000DD010895862FBA010E945A020895862F1A
:100BA0000E9475010895CB010E9478020895CB013F
:100BB000BA01A9010E9497040895DB010DC080913C
:100BC000400190914101FC01EE5BFE4F26AB019686
:100BD00090934101809340012D91222381F7089544
:100BE0008FE391E00E9497050895EF92FF920F9393
:100BF0001F930FE311E082E4E82E81E0F82EC80194
:100C0000B7010E949D054091400150914101C801EA
:100C1000B7010E9498051F910F91FF90EF900895E2
:100C20000F931F93CF93DF938C018FE391E064EFD9
:100C300071E042E451E00E94C505AC01909341018E
:100C400080934001009709F4C8C08FE391E062E40B
:100C500071E00E94BA05882339F08FE391E062E4E5
:100C600071E00E94B605BAC0409140015091410127
:100C70008FE391E062E471E00E94B105882309F4FA
:100C8000ADC080915901813081F480916401883038
:100C900009F0A3C040914001509141018FE391E0E0
:100CA00062E471E00E94AC0599C0863009F095C0FD
:100CB00080916601882309F090C08091670190E0DF
:100CC000F801208131818217930709F086C0809155
:100CD000710181FF07C08FE391E062E471E00E943F
:100CE000A8057CC084FF79C08FE391E062E471E0E5
:100CF0000E94A4058FE391E00E94A105EC010097FA
:100D000059F48091710180FF69C08FE391E062E442
:100D100071E00E949D0562C0BC016E5B7E4F80E069
:100D200091E044E050E00E94CC000097F1F08FE3A6
:100D300091E062E471E040E050E02BEA30E00E9494
:100D4000D705AC0190934101809340018FE391E07E
:100D500062E471E020EA30E00E94D70590934101FF
:100D600080934001C8010E94F505FE01EA5BFE4F39
:100D700080818F3291F5C95BDE4FA0E0B0E005C005
:100D8000FD01E95CFC4F808311968881803221F05F
:100D90002196A032B105A1F7A95CBC4F1C928FE34C
:100DA00091E062E471E040E050E023E730E00E942F
:100DB000D705AC0190934101809340018FE391E00E
:100DC00062E471E028E630E00E94D705909341018B
:100DD0008093400127E333E003C003C020E030E00C
:100DE000C901DF91CF911F910F910895AF92BF92EA
:100DF000CF92DF92EF92FF920F931F936C017B01D2
:100E00005A01FC01318320830FE311E0C8010E94E5
:100E1000D305C80162E00E94CF056AE070E080E07F
:100E200090E00E94E007C80164E140E858E00E94B9
:100E3000CA0564EF71E080E090E00E94E007C8011D
:100E400064E140E959E00E94CA0564EF71E080E086
:100E500090E00E94E007C80164E140E858E00E9489
:100E6000CA0564EF71E080E090E00E94E007C801ED
:100E700064E140E959E00E94CA0564EF71E080E056
:100E800090E00E94E007C80164E146E754E00E9458
:100E9000CA0564E670E080E090E00E94E007C801C7
:100EA000B701A501F60120810E94BF051F910F9196
:100EB000FF90EF90DF90CF90BF90AF900895CF93C9
:100EC000DF9388E593E00E941006EC010097D9F0CB
:100ED00088E593E065E071E00E94DD0588E593E038
:100EE00066E171E00E94DD0588E593E0BE010E94A5
:100EF000DD0588E593E06BE171E00E94DD0588E5A2
:100F000093E00E94F505DF91CF91089588E593E085
:100F100063E271E049E251E020E530E00E94F6062C
:100F200008950E9418080E9486070E945F07FDCF5F
:100F30001F920F920FB60F9211242F933F938F930E
:100F40009F93AF93BF9380915E0390915F03A091B5
:100F50006003B0916103309162030196A11DB11D40
:100F6000232F2D5F2D3720F02D570196A11DB11D88
:100F70002093620380935E0390935F03A0936003CA
:100F8000B093610380915A0390915B03A0915C033D
:100F9000B0915D030196A11DB11D80935A039093FA
:100FA0005B03A0935C03B0935D03BF91AF919F91EE
:100FB0008F913F912F910F900FBE0F901F9018951A
:100FC000EF92FF920F931F937B018C018FB7F894E0
:100FD00040915E0350915F036091600370916103E3
:100FE0008FBF2FB7F89480915E0390915F03A0911B
:100FF0006003B09161032FBF841B950BA60BB70B49
:10100000E816F9060A071B0760F71F910F91FF907A
:10101000EF900895019759F0FC01EE0FFF1FEE0FBE
:10102000FF1F32978FB7F8943197F1F78FBF08956C
:10103000789484B5826084BD84B5816084BD85B5B3
:10104000826085BD85B5816085BDEEE6F0E080817A
:1010500081608083E1E8F0E080818260808380812C
:1010600081608083E0E8F0E0808181608083E1EB53
:10107000F0E0808184608083E0EBF0E0808181603B
:101080008083EAE7F0E080818460808380818260F1
:1010900080838081816080838081806880831092DA
:1010A000C1000895282F30E0C901875E9E4FFC01E2
:1010B00094912B5F3E4FF9018491882391F0E82FA2
:1010C000F0E0EE0FFF1FE951FF4FA591B4916623A9
:1010D00029F48C91909589238C9308958C91892B78
:1010E0008C930895482F50E0CA01835D9E4FFC0108
:1010F0002491CA01875E9E4FFC0194914B5F5E4F25
:10110000FA0134913323D1F1222331F1233021F438
:10111000809180008F7705C0243031F48091800069
:101120008F7D8093800018C0213019F484B58F77AB
:1011300004C0223021F484B58F7D84BD0DC02630DB
:1011400021F48091B0008F7705C0273029F4809179
:10115000B0008F7D8093B000E32FF0E0EE0FFF1F13
:10116000EF50FF4FA591B491662329F48C9190958F
:1011700089238C9308958C91892B8C930895EE0F7D
:0E118000FF1F0590F491E02D0994F894FFCF25
:10118E0047455420003C48313E41726475696E6F8C
:10119E003C2F48313E003C48323E003C2F48323E08
:0E11AE00000A50545558100024C0A8010F002C
:00000001FF
