:100000000C949C000C94C4000C94C4000C94C40088
:100010000C94C4000C94C4000C94C4000C94C40050
:100020000C94C4000C94C4000C94C4000C94C40040
:100030000C94C4000C94C4000C94C4000C94C40030
:100040000C949E070C94C4000C94C4000C94C4003F
:100050000C94C4000C94C4000C94C4000C94C40010
:100060000C94C4000C94C400485454502F312E30CA
:1000700020323030204F4B0D0A436F6E74656E7422
:100080002D547970653A20746578742F68746D6C9E
:100090000D0A0D0A003C68313E413C2F68313E009C
:1000A000485454502F312E3020323030204F4B0DD9
:1000B0000A436F6E74656E742D547970653A2074BE
:1000C0006578742F68746D6C0D0A0D0A3C68313EBA
:1000D000323030204F4B3C2F68313E000000000092
:1000E000240027002A0000000000250028002B0023
:1000F0000000000023002600290004040404040476
:1001000004040202020202020303030303030102C6
:100110000408102040800102040810200102040895
:100120001020000000070002010000030406000088
:10013000000000000000F30511241FBECFEFD4E043
:10014000DEBFCDBF11E0A0E0B1E0EAE9F1E102C01D
:1001500005900D92AE36B107D9F713E0AEE6B1E0E7
:1001600001C01D92A33AB107E1F711E0C8E3D1E065
:1001700004C02297FE010E94C708C633D107C9F701
:100180000E9497070C94CB080C940000FB01DC0143
:100190008D91019080190110D9F3990B0895FB01FD
:1001A000DC014150504030F08D910190801919F4DC
:1001B0000020B9F7881B990B08950F931F93CF93D5
:1001C000DF938C01EB018AE060E00E9478088AE707
:1001D0008EBD0DB407FEFDCF08C088818EBD0DB465
:1001E00007FEFDCF01501040219601151105A9F71A
:1001F0008AE061E00E947808DF91CF911F910F9112
:1002000008950F931F93CF93DF938C01EB018AE046
:1002100060E00E9478088AE38EBD0DB407FEFDCF32
:100220009801FE0108C01EBC0DB407FEFDCF215091
:1002300030408EB5819321153105A9F7C00FD11F2C
:1002400018828AE061E00E947808DF91CF911F91C7
:100250000F910895FF920F931F93082F162FF42EDE
:100260008AE060E00E9478081F71102B1EBD0DB45B
:1002700007FEFDCFFEBC0DB407FEFDCF8AE061E0B6
:100280000E9478081F910F91FF9008951F93CF93BC
:10029000DF93182FC82FD0E0C076D07080916E0108
:1002A00090E0C817D90791F080EA6FE143E00E941F
:1002B0002A0185E0D595C7958A95E1F780E86FE139
:1002C0004C2F0E942A01107610936E01DF91CF917E
:1002D0001F9108950F931F93182F062F0E94460118
:1002E00080E4612F402F0E942A011F910F910895F1
:1002F000682F677085E70E946A0108950F931F9326
:10030000182F062F8AE060E00E947808802F8F71F6
:10031000812B8EBD0DB407FEFDCF1EBC0DB407FEB4
:10032000FDCF07FF04C01EBC0DB407FEFDCF8AE061
:1003300061E00E9478088EB51F910F9108951F9378
:10034000182F0E94460180E0612F0E947E011F91BC
:100350000895EF92FF920F931F938C017B0182E02F
:100360006FEF0E946A0183E069E10E946A01602FD9
:10037000615086E00E946A0198012150364E87E064
:10038000632F0E946A018AE760E040E00E942A0130
:10039000C801B7010E94DD0080E86FE148E00E94DB
:1003A0002A018CE10E949F0181FF05C080EA6FE174
:1003B00048E00E942A011F910F91FF90EF9008954D
:1003C000AF92BF92CF92DF92EF92FF920F931F9363
:1003D000CF93DF936C015B0189E30E949F01882327
:1003E00019F4C0E0D0E05DC080E060916F010E9430
:1003F0006A016091700181E00E946A018AE360E015
:100400000E947E01082F10E01093700100936F018D
:100410008AE360E00E947E01382F20E0202B312B00
:100420003093700120936F018AE360E00E947E01A7
:10043000E82E8AE360E00E947E01F82E8AE360E005
:100440000E947E01082F10E08AE360E00E947E0196
:10045000382F20E0202B312B27FD03C0C0E0D0E057
:1004600011C0CE2DD0E09F2D80E0C82BD92BC60126
:10047000019724978C179D0708F4EC01CE01B50174
:100480000E9401018CE060916F010E946A016091FD
:1004900070018DE00E946A0180E86EE140E40E94F4
:1004A0002A01CE01DF91CF911F910F91FF90EF9024
:1004B000DF90CF90BF90AF9008950F931F93982F28
:1004C000162F072F84ED692F0E946A0186ED612F98
:1004D0000E946A0187ED602F0E946A0104C08FE0CC
:1004E00090E00E9410088AEE0E949F0180FDF7CFE5
:1004F0001F910F9108950F931F938C018AE061E083
:100500000E9458088AE061E00E9478088BE061E070
:100510000E9458088DE061E00E9458088CE060E07D
:100520000E9458088BE060E00E9478088DE060E04F
:100530000E94780880E58CBD8DB581608DBD8FEF00
:1005400060E04FEF0E942A0162E370E080E090E0FB
:100550000E94E6071092700110926F0188E060E03F
:100560000E946A0189E060E00E946A018CE060E01C
:100570000E946A018DE060E00E946A018AE06EEFED
:100580000E946A018BE069E10E946A0184E06FEFDA
:100590000E946A0185E069E10E946A0186E06FEFCE
:1005A0000E946A0187E06FE10E946A0188E360EBC4
:1005B0000E946A0188E26FE30E946A0189E260E3B7
:1005C0000E946A0180E369EF0E946A0181E367EF9C
:1005D0000E946A0180EC6DE00E946A0181EC60E09B
:1005E0000E946A0180E862EC42E30E942A0186ECE4
:1005F00062E10E946A0187EC6CE00E946A0184EC6F
:1006000062E10E946A018AEC6CED0E946A018BEC47
:1006100065E00E946A0184EEF80160810E946A012F
:1006200085EEF80161810E946A0182EEF801628123
:100630000E946A0183EEF80163810E946A0180EEE4
:10064000F80164810E946A0181EEF80165810E94CF
:100650006A0180E160E071E00E945D028FE10E942A
:10066000460180E86BE140EC0E942A0180E86FE1DE
:1006700044E00E942A011F910F910895EF92FF928A
:100680000F931F93CF93DF937C01413061F4685047
:1006900070409B0140E050E0685F7F4F2F5E3F4F0E
:1006A0004F4F5F4F12C0423029F020E030E040E071
:1006B00050E00BC0685070409B0140E050E0685F24
:1006C0007F4F2A5F3F4F4F4F5F4FE7018B010FC0B6
:1006D000F881E0E0898190E08E2B9F2BA0E0B0E0D4
:1006E000280F391F4A1F5B1F22960250104002300C
:1006F000110570F7FB01EE7FEE0DFF1D60FF0DC0D1
:10070000908180E0AA2797FDA095BA2F02C0407083
:100710005070280F391F4A1F5B1FCA01AA27BB2729
:100720000097A105B10599F720953095C901DF9192
:10073000CF911F910F91FF90EF900895CF93DF938A
:10074000EC014093600120E030E0F901E558FE4FF4
:10075000DB01A20FB31F8C9180832F5F3F4F2430AA
:10076000310599F720E030E0F901EB58FE4FDE014A
:10077000A20FB31F8C9180832F5F3F4F263031052E
:1007800099F7DF91CF910895FC0169327105B0F0BE
:100790008485883099F48585863081F4DF019696CA
:1007A000EBE7F1E09C918081981741F41196319626
:1007B00081E0EF37F807B1F781E0089580E0089510
:1007C000FC016A327105D0F084858830B9F48585E2
:1007D0008823A1F48685853489F4DF01EBE7F1E015
:1007E0005E969C915E978081981741F411963196A0
:1007F00081E0EF37F807A1F781E0089580E00895E0
:100800000F931F938C01FC01108E118E80E4848B5A
:10081000158A868BC8010E9664E170E040E00E9464
:100820003E03F801908F818F1F910F910895AC01C5
:10083000FC01ABE7B1E0828D868F8D91828F31967E
:1008400081E0AF37B807B9F7CA010E9400040895E4
:10085000FC0182A184A312A283A185A313A280918B
:10086000600183A3DF01999694E08C91680F711D5C
:1008700014968C91149714966C931497222311F06C
:100880008C9301C01C9291501197992319F0672FF6
:100890007727EBCF222349F416A217A280915F019C
:1008A00080A711A68E5F80935F0112AA13AA44232A
:1008B00051F082E086AB84E087AB85E080AF80E8D2
:1008C00081AF80E601C080E586A70895809171011F
:1008D00090917201892B19F420E030E006C020913C
:1008E0007301309174012E5D3F4FC9010895FC01E1
:1008F000908980E0218930E0282B392B86A58295CC
:100900008F7090E0880F991F880F991F9093740142
:100910008093730124513040281B390B30937201AE
:10092000209371011216130624F010927201109296
:10093000710108956A5C7F4FDC01A60FB71F6653F3
:10094000704003C08D936F5F7F4FFA014F5F5F4F21
:1009500084918823B9F7CB010895EF92FF920F930A
:100960001F938C017B0189E1F80187A7CB01889651
:10097000908B818BC8010E940004F80112AA13AA6F
:100980008CE190E0E80EF91EC8014A96B70142E0FA
:100990000E943E03F80192AB83ABC7014A96B801AF
:1009A0000E94A9011F910F91FF90EF900895CF939E
:1009B000DF93EC01FC01A5E7B1E0868180838D9196
:1009C0008683319681E0AB37B807B9F780E18FA70E
:1009D00060917101709172016115710521F4CE0170
:1009E00061E070E001C0CE0140E021E00E942804F7
:1009F000188A88E2898BCE010E941704CE014A969C
:100A00006CE170E042E00E943E039AAB8BAB86E360
:100A100090E0BE010E94A901DF91CF910895CF938C
:100A2000DF93EC01FC01A5E7B1E0868180838D9125
:100A30008683319681E0AB37B807B9F7188A8CE224
:100A4000898BCE010E94170482E18FA7CE0161E05D
:100A500070E041E020E00E942804CE014A9660E266
:100A600070E042E00E943E039AAB8BAB8AE390E0D9
:100A7000BE010E94A901DF91CF9108950F931F93AA
:100A8000CF93DF93EC018B01FC01A5E7B1E08681F8
:100A900080838D918683319681E0AB37B807B9F7B3
:100AA000CE010E9417041AA28CA1883F18F08DA1D4
:100AB0008F5F8DA38CA1885F8CA3C801BE010E94AB
:100AC000A901DF91CF911F910F910895CF93DF93EB
:100AD000AC01EC0125E731E0FC01D901868180837E
:100AE0008D918683319681E0AB37B807B9F7FA016B
:100AF000148A82E0858B8E8988A3F90181919F01F8
:100B00008E8B2196F1E02B373F07A9F7FA017C96EF
:100B1000ABE7B1E0808182878D91819381E0AF372F
:100B2000B807C1F78AE290E0BA010E94A901DF91FB
:100B3000CF9108950895CB01BA010E94AD040895A4
:100B4000CB010E94D70408950E9466040895CB014A
:100B50000E9477040895CB010E940F050895CB01F0
:100B6000BA010E943E050895CB01BA010E94E0033C
:100B70000895CB010E9466050895CB01BA010E9439
:100B8000C4030895CB01BA01422F0E949E03089529
:100B9000CB01BA010E94E0010895862FBA010E949C
:100BA0005D020895862F0E9478010895CB010E946E
:100BB0007B020895CB01BA01A9010E949A0408950D
:100BC000DB010DC08091800190918101FC01EE5705
:100BD000FE4F26AB019690938101809380012D9169
:100BE000222381F708958FE791E00E949A050895E6
:100BF000EF92FF920F931F930FE711E082E8E82E28
:100C000081E0F82EC801B7010E94A0054091800143
:100C100050918101C801B7010E949B051F910F915E
:100C2000FF90EF9008950F931F93CF93DF938C0164
:100C30008FE791E064EF71E042E851E00E94C8055F
:100C4000AC019093810180938001009709F4BBC0AF
:100C50008FE791E062E871E00E94BD05882339F0DA
:100C60008FE791E062E871E00E94B905ADC0409164
:100C70008001509181018FE791E062E871E00E946C
:100C8000B405882309F4A0C080919901813081F4D2
:100C90008091A401883009F096C040918001509164
:100CA00081018FE791E062E871E00E94AF058CC09E
:100CB000863009F088C08091A601882309F083C09E
:100CC0008091A70190E0F80120813181821793077C
:100CD00009F079C08091B10181FF07C08FE791E0F1
:100CE00062E871E00E94AB056FC084FF6CC08FE7C3
:100CF00091E062E871E00E94A7058FE791E00E9411
:100D0000A405EC01009759F48091B10180FF5CC00B
:100D10008FE791E062E871E00E94A00555C0BC0138
:100D20006E577E4F80E091E044E050E00E94CF009B
:100D30000097F1F08FE791E062E871E040E050E069
:100D400020EA30E00E94DA05AC01909381018093A3
:100D500080018FE791E062E871E025E930E00E94D0
:100D6000DA059093810180938001C8010E94F80503
:100D7000FE01EA57FE4F80818F3229F5C957DE4FB9
:100D8000A0E0B0E005C0FD01E958FC4F808311965A
:100D90008881803221F02196A032B105A1F7A958AF
:100DA000BC4F1C928FE791E062E871E040E050E0B8
:100DB00028E630E00E94DA0590938101809380015B
:100DC00027E733E003C003C020E030E0C901DF9132
:100DD000CF911F910F910895AF92BF92CF92DF9262
:100DE000EF92FF920F931F936C017B015A01FC015C
:100DF000318320830FE711E0C8010E94D605C801A6
:100E000062E00E94D2056AE070E080E090E00E941B
:100E1000E607C80164E140E858E00E94CD0564EFB0
:100E200071E080E090E00E94E607C80164E140E9DB
:100E300059E00E94CD0564EF71E080E090E00E94EF
:100E4000E607C80164E140E858E00E94CD0564EF80
:100E500071E080E090E00E94E607C80164E140E9AB
:100E600059E00E94CD0564EF71E080E090E00E94BF
:100E7000E607C80164E146E754E00E94CD0564E658
:100E800070E080E090E00E94E607C801B701A5018C
:100E9000F60120810E94C2051F910F91FF90EF90F3
:100EA000DF90CF90BF90AF900895CF93DF9388E904
:100EB00093E00E941306EC01009731F188E993E07A
:100EC00065E071E00E94E005CE0169E171E00E94F9
:100ED000C600009751F48091610161E00E9478089A
:100EE00088E993E061E271E009C08091610160E00E
:100EF0000E94780888E993E061E471E00E94E005CF
:100F000088E993E00E94F805DF91CF91089588E980
:100F100093E063E671E049E651E020E530E00E94AD
:100F2000EC068091610161E00E94580808950E94DA
:100F30001E080E9487070E945507FDCF1F920F923F
:100F40000FB60F9211242F933F938F939F93AF93DC
:100F5000BF9380919E0390919F03A091A003B091B5
:100F6000A1033091A2030196A11DB11D232F2D5F76
:100F70002D3720F02D570196A11DB11D2093A203FE
:100F800080939E0390939F03A093A003B093A1032B
:100F900080919A0390919B03A0919C03B0919D0333
:100FA0000196A11DB11D80939A0390939B03A0937A
:100FB0009C03B0939D03BF91AF919F918F913F91FF
:100FC0002F910F900FBE0F901F901895EF92FF92E8
:100FD0000F931F937B018C018FB7F89440919E0370
:100FE00050919F036091A0037091A1038FBF2FB711
:100FF000F89480919E0390919F03A091A003B091DB
:10100000A1032FBF841B950BA60BB70BE816F9069F
:101010000A071B0760F71F910F91FF90EF9008954B
:10102000019759F0FC01EE0FFF1FEE0FFF1F3297E3
:101030008FB7F8943197F1F78FBF0895789484B5FE
:10104000826084BD84B5816084BD85B5826085BDC4
:1010500085B5816085BDEEE6F0E0808181608083AA
:10106000E1E8F0E08081826080838081816080831C
:10107000E0E8F0E0808181608083E1EBF0E0808156
:1010800084608083E0EBF0E0808181608083EAE728
:10109000F0E08081846080838081826080838081B1
:1010A000816080838081806880831092C100089570
:1010B000282F30E0C901825F9E4FFC019491265099
:1010C0003F4FF9018491882391F0E82FF0E0EE0F73
:1010D000FF1FE452FF4FA591B491662329F48C9130
:1010E000909589238C9308958C91892B8C930895E6
:1010F000482F50E0CA018E5D9E4FFC012491CA0129
:10110000825F9E4FFC01949146505F4FFA013491EB
:101110003323D1F1222331F1233021F48091800057
:101120008F7705C0243031F4809180008F7D8093CB
:10113000800018C0213019F484B58F7704C02230A4
:1011400021F484B58F7D84BD0DC0263021F48091BB
:10115000B0008F7705C0273029F48091B0008F7DD3
:101160008093B000E32FF0E0EE0FFF1FEA51FF4F36
:10117000A591B491662329F48C91909589238C9341
:1011800008958C91892B8C930895EE0FFF1F059085
:0A119000F491E02D0994F894FFCFCC
:10119A0047455420003C48313E5765622052656DF0
:1011AA006F74653C2F48313E003F636D643D6F6E3E
:1011BA00003C4120485245463D273F636D643D6FE0
:1011CA006666273E5475726E206F66663C2F413EF6
:1011DA00003C4120485245463D273F636D643D6FC0
:1011EA006E273E5475726E206F6E3C2F413E000A88
:0E11FA00500600545558100024C0A8010F00E4
:00000001FF
