:100000000C94A2000C94CA000C94CA000C94CA0070
:100010000C94CA000C94CA000C94CA000C94CA0038
:100020000C94CA000C94CA000C94CA000C94CA0028
:100030000C94CA000C94CA000C94CA000C94CA0018
:100040000C941F080C94CA000C94CA000C94CA00AB
:100050000C94CA000C94CA000C94CA000C94CA00F8
:100060000C94CA000C94CA003C68313E423C2F6894
:10007000313E00485454502F312E30203230302041
:100080004F4B0D0A436F6E74656E742D5479706515
:100090003A20746578742F68746D6C0D0A0D0A002F
:1000A0003C68313E413C2F68313E00485454502F4B
:1000B000312E3020323030204F4B0D0A436F6E749A
:1000C000656E742D547970653A20746578742F6864
:1000D000746D6C0D0A0D0A3C68313E323030204F91
:1000E0004B3C2F68313E0000000000240027002A0E
:1000F0000000000000250028002B00000000002365
:10010000002600290004040404040404040202027A
:100110000202020303030303030102040810204048
:1001200080010204081020010204081020000000D1
:1001300007000201000003040600000000000000A8
:100140000000210611241FBECFEFD4E0DEBFCDBFDB
:1001500011E0A0E0B1E0E0E0F3E102C005900D9213
:10016000A438B107D9F713E0A4E8B1E001C01D92AB
:10017000A93BB107E1F711E0C4E4D1E004C0229744
:10018000FE010E946609C234D107C9F70E9418080F
:100190000C947E090C940000FB01DC01415050409E
:1001A00030F08D910190801919F40020B9F7881B67
:1001B000990B0895FB019F01E8944230C4F0453249
:1001C000B4F44A3029F497FB1EF4909581959F4F23
:1001D000642F77270E946A09805D8A330CF0895D5D
:1001E0008193CB010097A1F716F45DE25193108241
:1001F000C9010C94FB00DC01FC01672F719177238E
:10020000E1F7329704C07C916D9370836291AE17D1
:10021000BF07C8F308950F931F93CF93DF938C010B
:10022000EB018AE060E00E9417098AE78EBD0DB4F9
:1002300007FEFDCF08C088818EBD0DB407FEFDCF3F
:1002400001501040219601151105A9F78AE061E0DF
:100250000E941709DF91CF911F910F9108950F937D
:100260001F93CF93DF938C01EB018AE060E00E9443
:1002700017098AE38EBD0DB407FEFDCF9801FE017C
:1002800008C01EBC0DB407FEFDCF215030408EB516
:10029000819321153105A9F7C00FD11F18828AE07B
:1002A00061E00E941709DF91CF911F910F9108958E
:1002B000FF920F931F93082F162FF42E8AE060E011
:1002C0000E9417091F71102B1EBD0DB407FEFDCF34
:1002D000FEBC0DB407FEFDCF8AE061E00E94170965
:1002E0001F910F91FF9008951F93CF93DF93182FC5
:1002F000C82FD0E0C076D0708091840190E0C817FC
:10030000D90791F080EA6FE143E00E94580185E04F
:10031000D595C7958A95E1F780E86FE14C2F0E944B
:100320005801107610938401DF91CF911F910895A9
:100330000F931F93182F062F0E94740180E4612FE2
:10034000402F0E9458011F910F910895682F6770E8
:1003500085E70E94980108950F931F93182F062F89
:100360008AE060E00E941709802F8F71812B8EBD7B
:100370000DB407FEFDCF1EBC0DB407FEFDCF07FF79
:1003800004C01EBC0DB407FEFDCF8AE061E00E94F0
:1003900017098EB51F910F9108951F93182F0E9472
:1003A000740180E0612F0E94AC011F910895EF92CB
:1003B000FF920F931F938C017B0182E06FEF0E94ED
:1003C000980183E069E10E949801602F615086E006
:1003D0000E94980198012150364E87E0632F0E94B9
:1003E00098018AE760E040E00E945801C801B70127
:1003F0000E940B0180E86FE148E00E9458018CE107
:100400000E94CD0181FF05C080EA6FE148E00E94B3
:1004100058011F910F91FF90EF900895AF92BF92F6
:10042000CF92DF92EF92FF920F931F93CF93DF93C0
:100430006C015B0189E30E94CD01882319F4C0E0BF
:10044000D0E05DC080E0609185010E9498016091DC
:10045000860181E00E9498018AE360E00E94AC017D
:10046000082F10E010938601009385018AE360E075
:100470000E94AC01382F20E0202B312B30938601D5
:10048000209385018AE360E00E94AC01E82E8AE3B4
:1004900060E00E94AC01F82E8AE360E00E94AC01AB
:1004A000082F10E08AE360E00E94AC01382F20E0C2
:1004B000202B312B27FD03C0C0E0D0E011C0CE2D92
:1004C000D0E09F2D80E0C82BD92BC601019724973F
:1004D0008C179D0708F4EC01CE01B5010E942F0195
:1004E0008CE0609185010E949801609186018DE009
:1004F0000E94980180E86EE140E40E945801CE011C
:10050000DF91CF911F910F91FF90EF90DF90CF90EF
:10051000BF90AF9008950F931F93982F162F072F1A
:1005200084ED692F0E94980186ED612F0E94980149
:1005300087ED602F0E94980104C08FE090E00E9438
:1005400091088AEE0E94CD0180FDF7CF1F910F9197
:1005500008950F931F938C018AE061E00E94F708D1
:100560008AE061E00E9417098BE061E00E94F708D1
:100570008DE061E00E94F7088CE060E00E94F708DF
:100580008BE060E00E9417098DE060E00E9417098F
:1005900080E58CBD8DB581608DBD8FEF60E04FEF44
:1005A0000E94580162E370E080E090E00E946708DA
:1005B000109286011092850188E060E00E94980107
:1005C00089E060E00E9498018CE060E00E94980160
:1005D0008DE060E00E9498018AE06EEF0E94980131
:1005E0008BE069E10E94980184E06FEF0E9498011E
:1005F00085E069E10E94980186E06FEF0E94980112
:1006000087E06FE10E94980188E360EB0E94980107
:1006100088E26FE30E94980189E260E30E949801FA
:1006200080E369EF0E94980181E367EF0E949801DF
:1006300080EC6DE00E94980181EC60E00E949801DE
:1006400080E862EC42E30E94580186EC62E10E947D
:10065000980187EC6CE00E94980184EC62E10E94B2
:1006600098018AEC6CED0E9498018BEC65E00E9489
:10067000980184EEF80160810E94980185EEF801EE
:1006800061810E94980182EEF80162810E949801C6
:1006900083EEF80163810E94980180EEF801648185
:1006A0000E94980181EEF80165810E94980180E125
:1006B00060E071E00E948B028FE10E94740180E88B
:1006C0006BE140EC0E94580180E86FE144E00E9439
:1006D00058011F910F910895EF92FF920F931F936E
:1006E000CF93DF937C01413061F4685070409B01EF
:1006F00040E050E0685F7F4F2F5E3F4F4F4F5F4FAE
:1007000012C0423029F020E030E040E050E00BC061
:10071000685070409B0140E050E0685F7F4F2A5F67
:100720003F4F4F4F5F4FE7018B010FC0F881E0E073
:10073000898190E08E2B9F2BA0E0B0E0280F391F1D
:100740004A1F5B1F2296025010400230110570F7BD
:10075000FB01EE7FEE0DFF1D60FF0DC0908180E07C
:10076000AA2797FDA095BA2F02C040705070280F9D
:10077000391F4A1F5B1FCA01AA27BB270097A10583
:10078000B10599F720953095C901DF91CF911F915F
:100790000F91FF90EF900895CF93DF93EC0140937A
:1007A000780120E030E0F901EF56FE4FDB01A20FA7
:1007B000B31F8C9180832F5F3F4F2430310599F711
:1007C00020E030E0F901E557FE4FDE01A20FB31F34
:1007D0008C9180832F5F3F4F2630310599F7DF9151
:1007E000CF910895FC0169327105B0F0848588309D
:1007F00099F48585863081F4DF019696E1E9F1E090
:100800009C918081981741F41196319681E0E539E9
:10081000F807B1F781E0089580E00895FC016A329D
:100820007105D0F084858830B9F485858823A1F4DA
:100830008685853489F4DF01E1E9F1E05E969C91DB
:100840005E978081981741F41196319681E0E539E1
:10085000F807A1F781E0089580E008950F931F93B2
:100860008C01FC01108E118E80E4848B158A868B9E
:10087000C8010E9664E170E040E00E946C03F8014C
:10088000908F818F1F910F910895AC01FC01A1E918
:10089000B1E0828D868F8D91828F319681E0A5396E
:1008A000B807B9F7CA010E942E040895FC0182A17D
:1008B00084A312A283A185A313A28091780183A3AC
:1008C000DF01999694E08C91680F711D14968C91BC
:1008D000149714966C931497222311F08C9301C0F3
:1008E0001C9291501197992319F0672F7727EBCF1E
:1008F000222349F416A217A28091770180A711A69E
:100900008E5F8093770112AA13AA442351F082E0EC
:1009100086AB84E087AB85E080AF80E881AF80E67E
:1009200001C080E586A70895809187019091880194
:10093000892B19F420E030E006C020918901309124
:100940008A012E5D3F4FC9010895FC01908980E026
:10095000218930E0282B392B86A582958F7090E075
:10096000880F991F880F991F90938A01809389019E
:1009700024513040281B390B309388012093870184
:100980001216130624F01092880110928701089520
:100990006A5C7F4FDC01A60FB71F6653704003C02F
:1009A0008D936F5F7F4FFA014F5F5F4F8491882374
:1009B000B9F7CB010895EF92FF920F931F938C012B
:1009C0007B0189E1F80187A7CB018896908B818B09
:1009D000C8010E942E04F80112AA13AA8CE190E02B
:1009E000E80EF91EC8014A96B70142E00E946C0366
:1009F000F80192AB83ABC7014A96B8010E94D701B8
:100A00001F910F91FF90EF900895CF93DF93EC012A
:100A1000FC01ABE8B1E0868180838D9186833196BD
:100A200081E0A139B807B9F780E18FA7609187010C
:100A3000709188016115710521F4CE0161E070E0CB
:100A400001C0CE0140E021E00E945604188A88E2ED
:100A5000898BCE010E944504CE014A966CE170E07C
:100A600042E00E946C039AAB8BAB86E390E0BE0140
:100A70000E94D701DF91CF910895CF93DF93EC01CE
:100A8000FC01ABE8B1E0868180838D91868331964D
:100A900081E0A139B807B9F7188A8CE2898BCE01B9
:100AA0000E94450482E18FA7CE0161E070E041E041
:100AB00020E00E945604CE014A9660E270E042E0D7
:100AC0000E946C039AAB8BAB8AE390E0BE010E945C
:100AD000D701DF91CF9108950F931F93CF93DF93A9
:100AE000EC018B01FC01ABE8B1E0868180838D9144
:100AF0008683319681E0A139B807B9F7CE010E940B
:100B000045041AA28CA1883F18F08DA18F5F8DA398
:100B10008CA1885F8CA3C801BE010E94D701DF9120
:100B2000CF911F910F910895CF93DF93AC01EC010A
:100B30002BE831E0FC01D901868180838D91868389
:100B4000319681E0A139B807B9F7FA01148A82E039
:100B5000858B8E8988A3F90181919F018E8B2196C7
:100B6000F1E021393F07A9F7FA017C96A1E9B1E04C
:100B7000808182878D91819381E0A539B807C1F783
:100B80008AE290E0BA010E94D701DF91CF910895E7
:100B90000895CB01BA010E94DB040895CB010E94A5
:100BA000050508950E9494040895CB010E94A504B0
:100BB0000895CB010E943D050895CB01BA010E9422
:100BC0006C050895CB01BA010E940E040895CB0173
:100BD0000E9494050895CB01BA010E94F203089582
:100BE000CB01BA01422F0E94CC030895CB01BA0178
:100BF0000E940E020895862FBA010E948B0208956A
:100C0000862F0E94A6010895CB010E94A902089593
:100C1000CB01BA01A9010E94C8040895DB010DC0EF
:100C20008091960190919701FC01E856FE4F26AB0A
:100C3000019690939701809396012D91222381F73D
:100C4000089585E991E00E94C8050895EF92FF920A
:100C50000F931F9305E911E088E9E82E81E0F82E53
:100C6000C801B7010E94CE054091960150919701AD
:100C7000C801B7010E94C9051F910F91FF90EF9025
:100C800008950F931F93DF93CF93CDB7DEB72997C6
:100C90000FB6F894DEBF0FBECDBFCB018E010F5F44
:100CA0001F4FB8014AE050E00E94DA00809196019F
:100CB00090919701D801FC01E253FE4F02C041938D
:100CC000C9014D919C012F5F3F4F4423C1F7909381
:100CD00097018093960129960FB6F894DEBF0FBE58
:100CE000CDBFCF91DF911F910F9108950F931F9367
:100CF000CF93DF938C0185E991E064EF71E048E9DF
:100D000051E00E94F605AC01909397018093960103
:100D1000009709F4C4C085E991E068E971E00E9498
:100D2000EB05882339F085E991E068E971E00E94DC
:100D3000E705B6C0409196015091970185E991E091
:100D400068E971E00E94E205882309F4A9C0809156
:100D5000AF01813081F48091BA01883009F09FC0E1
:100D6000409196015091970185E991E068E971E021
:100D70000E94DD0595C0863009F091C08091BC01CC
:100D8000882309F08CC08091BD0190E0F80120819A
:100D900031818217930709F082C08091C70181FFDA
:100DA00007C085E991E068E971E00E94D90578C043
:100DB00084FF75C085E991E068E971E00E94D5057E
:100DC00085E991E00E94D205EC01009759F48091E9
:100DD000C70180FF65C085E991E068E971E00E9484
:100DE000CE055EC0BC0168567E4F80E091E044E0D5
:100DF00050E00E94CC000097F1F085E991E068E9AD
:100E000071E040E050E02BEA30E00E940806AC01BF
:100E1000909397018093960185E991E068E971E0EC
:100E200020EA30E00E940806909397018093960193
:100E3000C8010E942606C456DE4F88818F3279F59C
:100E400080E090E005C0FC01E357FC4F2083019651
:100E5000FC01E856FE4F2081222319F080329105D3
:100E600091F785E991E068E971E040E050E023E71F
:100E700030E00E940806AC019093970180939601A0
:100E800085E991E068E971E028E630E00E94080613
:100E9000909397018093960125E031E003C003C051
:100EA00020E030E0C901DF91CF911F910F910895AB
:100EB000AF92BF92CF92DF92EF92FF920F931F9368
:100EC0006C017B015A01FC013183208305E911E0AB
:100ED000C8010E940406C80162E00E9400066AE0A0
:100EE00070E080E090E00E946708C80164E140E89B
:100EF00058E00E94FB0564EF71E080E090E00E9402
:100F00006708C80164E140E959E00E94FB0564EF0D
:100F100071E080E090E00E946708C80164E140E869
:100F200058E00E94FB0564EF71E080E090E00E94D1
:100F30006708C80164E140E959E00E94FB0564EFDD
:100F400071E080E090E00E946708C80164E146E734
:100F500054E00E94FB0564E670E080E090E00E94AF
:100F60006708C801B701A501F60120810E94F005BC
:100F70001F910F91FF90EF90DF90CF90BF90AF90B7
:100F80000895CF93DF938EEA93E00E947606892B33
:100F9000D9F18EEA93E067E071E00E940E068EEAD6
:100FA00093E06AE271E00E940E06C0E0D0E08EEAB3
:100FB00093E060E571E00E940E068EEA93E0BE01C8
:100FC0000E9441068EEA93E069E571E00E940E06F8
:100FD0008C2F0E94D908BC018EEA93E00E94410642
:100FE0008EEA93E063E671E00E940E062196C63019
:100FF000D105E9F68EEA93E06EE671E00E940E06F6
:101000008EEA93E00E94260664E670E080E090E0BD
:101010000E946708DF91CF9108958EEA93E069E717
:1010200071E04FE751E020E530E00E945807089555
:101030000E949F080E940D080E94C107FDCF1F92C9
:101040000F920FB60F9211242F933F938F939F937C
:10105000AF93BF938091B4039091B503A091B60371
:10106000B091B7033091B8030196A11DB11D232F94
:101070002D5F2D3720F02D570196A11DB11D209316
:10108000B8038093B4039093B503A093B603B093D1
:10109000B7038091B0039091B103A091B203B091D6
:1010A000B3030196A11DB11D8093B0039093B103CA
:1010B000A093B203B093B303BF91AF919F918F916F
:1010C0003F912F910F900FBE0F901F901895EF92A8
:1010D000FF920F931F937B018C018FB7F89440917F
:1010E000B4035091B5036091B6037091B7038FBFFD
:1010F0002FB7F8948091B4039091B503A091B603F3
:10110000B091B7032FBF841B950BA60BB70BE81646
:10111000F9060A071B0760F71F910F91FF90EF90E8
:101120000895019759F0FC01EE0FFF1FEE0FFF1F0E
:1011300032978FB7F8943197F1F78FBF089578946D
:1011400084B5826084BD84B5816084BD85B58260CC
:1011500085BD85B5816085BDEEE6F0E0808181606A
:101160008083E1E8F0E0808182608083808181601B
:101170008083E0E8F0E0808181608083E1EBF0E053
:10118000808184608083E0EBF0E0808181608083F7
:10119000EAE7F0E0808184608083808182608083E0
:1011A0008081816080838081806880831092C1000B
:1011B00008958F70909183019295990F990F907C6B
:1011C000982B90937C0080917A00806480937A00C1
:1011D00080917A0086FDFCCF2091780040917900C3
:1011E000942F80E030E0282B392BC9010895282F57
:1011F00030E0C901875E9E4FFC0194912B5F3E4F0A
:10120000F9018491882391F0E82FF0E0EE0FFF1FA1
:10121000E951FF4FA591B491662329F48C919095E3
:1012200089238C9308958C91892B8C930895482F52
:1012300050E0CA01835D9E4FFC012491CA01875E84
:101240009E4FFC0194914B5F5E4FFA013491332322
:10125000D1F1222331F1233021F4809180008F7766
:1012600005C0243031F4809180008F7D8093800010
:1012700018C0213019F484B58F7704C0223021F4CE
:1012800084B58F7D84BD0DC0263021F48091B000DF
:101290008F7705C0273029F48091B0008F7D80932F
:1012A000B000E32FF0E0EE0FFF1FEF50FF4FA591CE
:1012B000B491662329F48C91909589238C93089599
:1012C0008C91892B8C930895EE0FFF1F0590F4915C
:1012D000E02D0994AA1BBB1B51E107C0AA1FBB1F2D
:1012E000A617B70710F0A61BB70B881F991F5A95B2
:1012F000A9F780959095BC01CD010895F894FFCF92
:10130000474554200061003C48313E416E616C6F9E
:10131000672056616C7565733C2F48313E3C6272A4
:101320002F3E3C7461626C653E003C74723E3C74BE
:10133000683E496E7075743C2F74683E3C74683E1C
:1013400056616C75653C2F74683E3C2F74723E008C
:101350003C74723E3C74643E003C2F74643E3C74AA
:10136000643E003C2F74643E3C2F74723E003C2F60
:101370007461626C653E000A50545558100024C0D8
:04138000A8010F01B0
:00000001FF
